:1000000078FFE4B8200118F6D8F99000007F007E50:1000100007E4F0A3DFFCDEFA758120022CFC9003DC:10002000FDEFF0E0FF2402121350E0601AEF12140B:10003000081210B512114C400E9003FDE02402127C:100040001350E4F07F01227F0022000228F0EFD35A:100050009403500D12125BF583E5822D1210E9E432:10006000F02200022E7B75F002122439E0FCA3E09E:10007000FD75F088EFA42444F582E5F03400F583A3:10008000EE75F0020224399003FCE0FF75F002A443:1000900024CAF582E5F03401F583E0FCA3E0FDEF2E:1000A00075F002A42426F582E5F03400F58322756C:1000B000F004122439E0F8A3E0F9A3E0FAA3E0FB8E:1000C0009002E3E0FCA3E0FDA3E0FEA3E0229004A5:1000D0000AE0FF900409E0FE75F088A424A7F582E9:1000E000E5F03400F583E5822FF582E43583F5836E:1000F0002290040BE0FEA3E0FF900409E0FD75F000:1001000088A4247AF582E5F03400F58322EF2424D4:10011000FFEE34FAFE7C007D0A1223587D1E122366:100120006AEF24DCFFEE3405FEEB75F002A4242018:10013000F582E5F03400F58322E0FCA3E0FDEF75E5:10014000F088A42456F582E5F03400229027A0C35D:100150009BFBEE9AFAED99F9EC98F8E493FE7401A2:1001600093FFE4FCFDC30223EB75F002EBA4241A19:10017000F582E5F03400F583E0FCA3E0FDEB75F0DB:1001800002A42414F582E5F03400F58322C39DFF18:10019000EE9CFEE075F088A42468F582E5F034005A:1001A000F58322F583E493FC740193FD75F002EF6F:1001B000A422900409E0FF75F088A42432F582E5BA:1001C000F03400F5832275F088A4248CF582E5F0E4:1001D0003400F583EC75F002022439EB75F002A4CB:1001E000241AF582E5F03400F58322900409E0FF3B:1001F00075F088A42444F582E5F03400F58322E00C:100200004401F0E4900013F09002D3229003FCE04C:10021000FF24DCF582E43401F58322F074E22EF54C:1002200082E43401F58322F0A3F0A3F0A3F0A3F05D:10023000A3F0A32224D0F582E5F03401F583ECF09D:10024000A3EDF0EF25E022900409E0FD75F088A40D:10025000248CF582E5F03400F58322EF75F009A4D3:1002600024E7F582E4340222EF75F009A4244CF56A:1002700082E434022290040AE0FF900409E075F061:1002800088A4249EF582E5F0340022E4F075F0881D:10029000EEA424B0F582E5F034002290040DE0FDD8:1002A000EF9D7480F86E9822900409E0FFA3E0FDB2:1002B00022EF245CFFEE34FEFE7C007D0A12235800:1002C0007D3212236AEF24A4FFEE3401FE75F002A2:1002D000EB229003FCE024DFF582E43401F5832275:1002E000E0FF25E024FDF582E43403F5832290034A:1002F000FCE0FF75F002A424D6F582E5F03401227B:10030000EDF0CBEFCBEBD394032275F088EEA42471:10031000B9F582E5F0340022E04406F09000137451:1003200001F02275F002EF122439E0FCA3E0FD7524:10033000F08822E0FEA3E0FFD322900375E054F0A2:10034000F02274F02BF582E43401F5832274022B41:10035000F582E43400F58322740A2BF582E434023A:10036000F5832274D42BF582E43402F58322C39BF7:10037000FBEE9AFAED99F9EC98F822E0FEA3E0C3BF:100380009D22EB25E024D0F582E43428F58322E099:10039000249EF582E43400F583E0640122242CF5E8:1003A00082E5F03400F583ECF0A3EDF00F22E4F0E9:1003B000A3F075F08822E0FCA3E0FDEC541F22EED0:1003C0008FF01223BF75F088ED22C3EF94F6EE6430:1003D00080947F22E49001E6F0900246F02275F0CE:1003E00024A42402F582E43403F5832275F024A4C6:1003F0002467F582E43402F5832225E025E024F326:10040000F582E43401F5832225E025E02405F58218:10041000E43400F5832225E025E02439F582E43434:1004200002F5832225E025E024D7F582E43402F5A5:100430008322900409E0FFA3E0FD22A424A7F58213:10044000E5F03400F583E582229003FCE09003FBA5:10045000F022F074E32EF582E43401F583E4F02217:10046000902EC3F0A37407F022E0FF9003FDE0FE9E:10047000EFC8EEC80822900375E0440A22902EC50A:10048000E4F0902ECDF0A3F022F582E43402F5835F:1004900022940AEE648094802225E02403F582E40D:1004A0003404F5832275F002EF022439902EC6F051:1004B000902EC57401F022F09001E5747EF0E4A363:1004C000F02275F0041224390223FCECF0A3EDF0C5:1004D000900409E022902EC97420F0229003FCE0E1:1004E00004F022ECF0A3EDF09003FBE022F0900189:1004F000E7F0900247F022900409EFF0A3EDF090AE:10050000040D7403F0ED70037402F0900409E0FF31:1005100012113FF583C083C08290040AE0FED082AE:10052000D08312106612137BFFEE9CFE90040BF03A:10053000A3EFF01233CEC312129B40030215F01248:1005400010F1C083C08290040AE0FCD082D08312F4:1005500010811213BF121101EC1210811213331209:10056000149140241210F9C083C08290040AE0FC68:10057000D082D083121081E4F0A3F0ED12113F126B:1005800011D2E475F001802B1213CA50299004098E:10059000E0FF1210FEC083C08290040AE0FED08209:1005A000D083121081E4F0A3F012113E12107E7479:1005B000FFF5F01223BF1212A812104E1212A81249:1005C00031451212A8122ED2EF700302171C9004AC:1005D0000AE0FF900409E0FE12127E1210E4E4F03B:1005E000EF600302171C12130AF583E4F002171CD4:1005F00090040AE0703EA3E0FEA3E0FF1233CE9029:10060000040DE02402FDE433FCD3EF9DEC6480F89C:10061000EE64809840091212751210E47401F01211:100620001755D312129B402C900409E075F08812E4:10063000130E801B12175590040DE0FDD31212A06B:100640004012121275F583E5822FF582E43583F5A9:10065000837401F01210F1C083C08290040AE0FCA0:10066000D082D0831210811213BF1211011211D443:100670001213339464EE6480948040231210F9C006:1006800083C08290040AE0FCD082D08312108112D1:1006900013AEED1211421211D2E475F0018031C394:1006A000EF949CEE6480947F5029900409E0FF123F:1006B00010FEC083C08290040AE0FED082D0831274:1006C0001081E4F0A3F012113E12107E74FFF5F0D9:1006D0001223BFC390040BE0648094805032121246:1006E000A812310C1212A8122F25EF6029900409CC:1006F0001211EEC083C08290040AE0FED082D08343:1007000012108112113912107EECF0A3EDF0800668:100710001212A812104E1212A8123360900409E0AF:10072000FF12113FF583C083C08290040AE0FED01F:1007300082D083121066E0FEA3E090040912118DAE:10074000C083C08290040AE0D082D083121081EE70:10075000F0A3EFF02290040BE0FEA3E0FF1233CEF3:10076000229001EDE0FE703B9001EFE06402705BCF:1007700090024804F09001DDE0B4010312131C90D4:1007800001DEE0B401069002D37401F0900388E02A:10079000B4200890036E7401F08005E490036EF0BD:1007A0007F0222EEB401249001EFE0B4021D90021A:1007B000487401F0900388E0B4200890036E74013F:1007C000F08005E490036EF07F0222E4FE900012B8:1007D000E0FFEEC39F400302199D9001EDE0FC7025:1007E0005612121CE06401704E74DC2E121213E0DB:1007F000FF701612133AEEB40104E04409F0EE64FF:10080000027021121476F0801BEF6401701612132F:100810003AEEB40104E04401F0EEB402079003752F:10082000E04402F012121CE4F0C28AC294000000FC:10083000000000D28AD294EC64016003021999127C:10084000121CE06401600302199974DC2E12121369:10085000E0FC60030218E212133AEE6401703A9071:100860000247E0FD6401701B900246E0900375B4FE:100870000109E044091212020480151211FF12143A:10088000ED8016ED900375B4020BE04405121202E0:1008900012145280041211FFF0EE64026003021978:1008A00086900247E0FF6401701C900246E09003CE:1008B00075B40106121318E48021E04404121202F8:1008C0001214ED021986EF900375B40205E0440599:1008D0008003E04404F0E4900013F09002D3F002AF:1008E0001986EC6401600302198612133AEE640162:1008F0007049900246E0FFB4020812147612131BEE:100900008013EF640170269001E7E0900375B40155:100910000C121318E49002D3121452801EE0440209:1009200012131BE49002D3F01213D5800E900375BE:10093000E0440212131BE49002D3F0EE640270460E:10094000900246E0B40210121476F09002D37401C3:10095000F0900013F0802F9001E6E06401701C908D:100960000247E0900375B40105E044098013E044B8:100970000812120204F01213D4800B900375E044A5:100980000812120204F012121CE4F0C28AC294008F:100990000000000000D28AD2940E0217CD7F0422FC:1009A0009003FB747EF09001EDE06003021AB790B3:1009B00003FCF0900012E0FF9003FCE0FEC39F40B8:1009C00003021A9674DC2E121213E06003021A6EF0:1009D00074DF2E1212D8E0FF70289003FCE075F04F:1009E00002A424D0F582E5F03401F583E0FCA3E015:1009F000FD75F002EE1210A3E0FAA3E0C39DEA9C9D:100A0000500FEF6401705B12108712137BEE9C4055:100A1000519003FCE0FF9003FBF01212D67401F03A:100A200074DC2F1212137401F09001E5E0FFB47E24:100A3000149003FCE0FE9001E5F0A3740112121B78:100A40007401F0800D9003FCE06F60069001E67485:100A500002F09003FCE0FF1233869003FCE0FF12EB:100A600032D7121BB560261212D2E4F0801F121288:100A7000EE12109812137BEE9C400C1214491231A6:100A8000E9EF6009021B6112120C1232769003FC2E:100A9000E004F00219B39001DDE0701BA3E07017D1:100AA0009001E6E0D39400400E9001E5E024E212CC:100AB000121F74011214B79001EDE064016003028B:100AC0001BA69003FCF0900012E0FE9003FCE0FFF8:100AD000C39E4003021BA612101EEF60031213D424:100AE0009003FCE0121211E0706112108712137B68:100AF000EE9C403B1214491212117401F09001E671:100B0000E004F0900246F09003FCE0FF24E21212B1:100B10001F7401F01233869003FCE0FF12339590AE:100B200003FCE0FF12329D9003FCE0FF1232D7126B:100B30001BB560051212D2E4F09003FCE0FF123204:100B40004AEF6059E49001E7021B981212EE12106E:100B50009812137BEE9C40191214491231E9EF6090:100B60003C9001EF7402F09003FCE0121211E4F0EB:100B70002212120C1232769003FCE0FF1233A49082:100B800003FCE0FF1232BA9003FCE024E212121FD1:100B90007401F09001E7E004F0900247F09003FC4C:100BA000E004F0021AC69003FBE0FF9001EBE06F57:100BB0006002EFF0229003FCE0FF1231B7EF2290C9:100BC00001EFE024FE601E147003021CA1147003E8:100BD000021D5F24036003021DA29001EF7402F066:100BE000E4900245F09001EF7403F0900248E06455:100BF000016003021C9EF09001EDE0FD702CC28AA2:100C0000C294000000000000D28AD29412133A90DD:100C10000013E06009E4F0900375E04409F09002ED:100C2000D3E06006E4F0121476F0ED640160030294:100C30001DA212133A900013E0FF70099002D3E056:100C40007003021DA2EF60129002D3E0600C12123A:100C500003F0900375E044058034900013E06012C7:100C60009002D3E0700C121204F0900375E044017E:100C7000801C900013E06003021DA29002D3E0707C:100C800003021DA2121203F0900375E04404F0C2A7:100C90008AC294000000000000D28AD29422022A64:100CA000B61226029001E8E07003021D4090024552:100CB000E004F0E49003FAF0900012E0FF9003FAF1:100CC000E0C39F507BE4FF9003FAE0FE1211B712DD:100CD0001323EE121142F5831214A5ECF0A3EDF0EC:100CE0009003FAE0FE1211B7121323EE1211F31261:100CF00014A51213A7EFB409CE9003FAE0FF121067:100D0000A0E4F0A3F0EF12112A7404F0A3E4F0EFD2:100D1000B40110E490037FF0A3F09003837404F017:100D2000E4A3F0EFB40210E4900381F0A3F0900389:100D3000857404F0E4A3F09003FAE004F0021CB818:100D4000900245E0C394034059900011747EF0E492:100D50009001E9F0900245F09001EF7404F0221246:100D600026029001E8E0603A122471E49003FAF060:100D7000900012E0FE9003FAE0FFC39E501612307E:100D80009612300F9003FAE0FF121F729003FAE000:100D900004F080DC12321B1219A01217619001EFCF:100DA000EFF022900409EFF0A3EDF090040D74072A:100DB000F0ED603F90009EE06401700280089004B6:100DC0000A12138F702D1211B2C083C08290040AD0:100DD000E0FED082D0831210661214CB12124CC0E7:100DE00083C08290040AE0D082D083121081E4F0A4:100DF000A3F0229004091211EEC083C08290040A6D:100E0000E0FED082D08312108112132AEFA4243284:100E1000F582E5F0340012107E12137BFFEE9CFE8B:100E200090040BF0A3EFF01233CE90040DE0FDC35D:100E30001212A04003021EFB1210CEE064017037B4:100E400075F088EE121197EF1211D5E0FEA3E0C302:100E5000941EEE648094804003021F411211B2C0C0:100E600083C08290040AE0FED082D083121066EC28:100E7000F0A3EDF0021F4190040BE0FEA3E0FF128F:100E80001247C083C08290040AE0FCD082D0831253:100E90001081EE8FF01223BFED1211C61213331220:100EA00014914029121247C083C08290040AE0FCCA:100EB000D082D0831210811213AEEDA42444F582A7:100EC000E5F034001211D2E475F00180281213CA43:100ED000506F900409E0FF12124CC083C08290044E:100EE0000AE0FED082D083121081E4F0A3F0121049:100EF0007174FFF5F01223BF021F411211B2C083BB:100F0000C08290040AE0FED082D0831210661214D0:100F1000CBFF121194C083C08290040AE0FED082FD:100F2000D083121081E0FCA3E0C3941EEC64809493:100F300080400E75F088EF12143B2E1210E97401F8:100F4000F01210CEE06401702812128D1210E4E04D:100F50000412128C1210E4E0D39405401490040A99:100F6000E0FF75F088EE1210DB12128B1210E4E431:100F7000F022CBEFCB1211DBE0FEA3E0FF12117DDC:100F8000E0FCA3E0FDC39FEC9E5003022031E42D62:100F9000FFEC3404FE1211DBE0FCA3E0FDC3EF9D87:100FA000FFEE9C121128EEF0A3EFF01211DBE0FE31:100FB000A3E0FF12117DE0FCA3E0C39FFFEC9EFEC7:100FC00075F002EB1210A3EEF0A3EFF0121382E41F:100FD00093FE740193FF75F002EB1210A3E0FCA3E3:100FE000E0FDD39FEC9E4024121382E493FE740133:100FF00093FFC3ED9FFFEC9EC313FEEF13FF12138D:10100000827401932FFFE4933EFE801775F002EB8C:101010001210A3E0FEA3E0FF7C007D631223580DB5:1010200012236A75F002EB1210A3EEF0A3EFF0802A:101030003C12117DE0FEA3E0FF1211DBE0FCA3E017:10104000C39FEC9EC3940475F002EB50121210A3E0:10105000E4F0A3F01211297404F0A3E4F0800E125E:1010600010A3E4F0A3F0121129E4F0A3F075F0024C:10107000EB1210A3E0FEA3E0C3941EEE9400500B0D:1010800075F002EB1210A3E4F0A3F0EB6401704FD3:1010900075F002EB1210A312133394A4EE940140E6:1010A0000B1212B11210A3EEF0A3EFF075F002EBE9:1010B0001210A31213B690037FF0EDA3F0121129C2:1010C00012133394DCEE9405400812110DEEF0A3D8:1010D000EFF01211291213B6900383F0EDA3F0EB99:1010E0006402704F75F002EB1210A312133394A434:1010F000EE9401400B1212B11210A3EEF0A3EFF028:1011000075F002EB1210A31213B6900381F0EDA359:10111000F012112912133394DCEE940540081211D9:101120000DEEF0A3EFF01211291213B6900385F023:10113000EDA3F022900409EFF0A3EDF090040D74FC:1011400007F0ED70037404F090009EE064017002FB:10115000800890040A12138F70381211EBC083C0FC:101160008290040AE0FED082D083121081121139DD:1011700012107EECF0A3EDF0900409121193C083DD:10118000C08290040AE0D082D083121081E4F0A3E0:10119000F022900409E0FF12113FF583C083C08262:1011A00090040AE0FED082D08312106612137BFFF7:1011B000EE9C90040BF0A3EFF09004091212D5E01E:1011C0006007E490040BF0A3F090040BE0FEA3E0B2:1011D000FF1233CE90040DE0FDC31212A0400302B3:1011E000226D90040BE0FEA3E0FF9004091210FCB6:1011F000C083C08290040AE0FCD082D083121081A8:101200001213BF1211011211D41213331214914090:10121000269004091210FCC083C08290040AE0FCEE:10122000D082D0831210811213AEED12114212112E:10123000D2E475F001802B1213CA5029900409E002:10124000FF1210FEC083C08290040AE0FED082D05C:1012500083121081E4F0A3F012113E12107E74FF8D:10126000F5F01223BF12143212104E8038C39004CE:101270000BE064809480502D12143212310C121441:1012800032122F25EF601E1211EBC083C082900432:101290000AE0FED082D08312108112113912107E22:1012A000ECF0A3EDF0900409E0FF12113FF583C0CC:1012B00083C08290040AE0FED082D083121066E0E0:1012C000FEA3E090040912118DC083C08290040A2D:1012D000E0D082D083121081EEF0A3EFF022BB01A8:1012E0000689828A83E0225002E722BBFE02E322C3:1012F00089828A83E49322BB010CE58229F582E589:10130000833AF583E0225006E92582F8E622BBFE07:1013100006E92582F8E222E58229F582E5833AF59D:1013200083E49322BB010689828A83F0225002F76C:1013300022BBFE01F322F8BB010DE58229F582E50F:10134000833AF583E8F0225006E92582C8F622BBED:10135000FE05E92582C8F222EF8DF0A4A8F0CF8C1B:10136000F0A428CE8DF0A42EFE22BC000BBE0029D6:10137000EF8DF084FFADF022E4CCF875F008EF2F8C:10138000FFEE33FEEC33FCEE9DEC984005FCEE9D49:10139000FE0FD5F0E9E4CEFD22EDF8F5F0EE842065:1013A000D21CFEADF075F008EF2FFFED33FD4007C6:1013B000985006D5F0F222C398FD0FD5F0EA22C569:1013C000F0F8A3E028F0C5F0F8E582158270021568:1013D00083E038F022A3F8E0C5F025F0F0E58215AF:1013E0008270021583E0C838F0E822EB9FF5F0EA3E:1013F0009E42F0E99D42F0E89C45F022ECF0A3ED1E:10140000F0A3EEF0A3EFF022A8828583F0D083D082:101410008212241F12241F12241F12241FE473E4BB:1014200093A3C583C5F0C583C8C582C8F0A3C5838F:10143000C5F0C583C8C582C822A42582F582E5F01F:101440003583F58322EF4E6012EF60010EEDBB0194:101450000B89828A83F0A3DFFCDEFA2289F0500731:10146000F709DFFCA9F022BBFEFCF309DFFCA9F0C1:1014700022E49003FCF09003FCE0FDC394095023A8:10148000E0FF75F0021211BAE0FAA3E0FB75F0027A:10149000EF1211F3EAF0A3EBF0E4FF1214F71214C9:1014A000DC80D3E49003FBF0900012E0FF9003FB9C:1014B000E0C39F40030225FC1212E0E4F0A3F0EF2A:1014C000121499E4F0A3F0EF70030225D4E4900322:1014D000FCF09003FCE0FDC3940950189003FBE07E:1014E000FF121DA39003FBE0FFA3E0FD12213412C5:1014F00014DC80DEE49003FCF09003FCE0FFC39476:1015000009400302259D749E2F12139260109003D0:10151000FBE075F08812130EF583E0B40119900317:10152000FB121193C083C0829003FCE0D082D08371:10153000121081E4F0A3F09003FCE0FF60599003E7:10154000FBE0FE1211941214A5E0FCA3E0C3940387:10155000EC64809480501A75F088EE121197C08365:10156000C0829003FCE0D082D083121081E4F0A30B:10157000F09003FBE0FF121194C083C0829003FC43:10158000E0D082D083121081E0FCA3E0FDEF1212C4:10159000E2EC8DF01223BF1214DC0224F990040552:1015A000E0FEA3E0FF9003FBE0FD1211DCEEF0A3F0:1015B000EFF0ED1212E2E0FEA3E0FFED1211DCE02D:1015C000FCA3E02FFFEC3EFE9003FBE012117EEE49:1015D000F0A3EFF09003FB1212E0E0FCA3E0FDEFBC:1015E00012117E1214E3FF121499E0FCA3E0121111:1015F000AB1211E01214E304F00224A8E49001E815:10160000F022E49003FCF09003FCE0FFC394094057:1016100003022788EF902EC87014E0545FF0A37483:101620006AF0902EC3744AF0A37401F08009E0447C:10163000F0F074201214609003FCE090278F9390D8:101640002ECAF0E49003FBF0900012E0FF9003FB41:10165000E0FEC39F400302277F74492E121489E0E5:10166000FF9003FDF0E4F5E2EFC39408503B7415DE:101670001214ACC083C0821214698002C333D8FC38:10168000D082D083F0902ECD7401F0C083C082E070:10169000FFC8EEC8088002C333D8FCD082D083F0E4:1016A000902EC074C1F00227059003FDE024F8F0ED:1016B00074171214ACC083C0821214698002C33341:1016C000D8FCD082D083F0902ECE7401F0C083C0BD:1016D00082E0FFC8EEC8088002C333D8FCD082D0B5:1016E00083F0EEB405031214D5EEB406061214D539:1016F000121460EEB407081214D5747012146090BE:101700002EC074C2F0E4FF900000742EF0A3E4F049:101710009003FBE02449121489E09003FDF0E5E218:1017200020E2050FEFB4C8DF53E2FB12147D9003F3:10173000FDE0FD75F002A4FFAEF0900001E02FF097:10174000900000E03EF0ED9027C093FF900000E491:1017500075F0021223D585F082F58312132AEF1259:1017600011BAC083C0829003FCE0D082D0831210F3:1017700081ECF0A3EDF09003FBE004F0022648902A:1017800003FCE004F00226079001E87401F0223F18:101790003F3F3F3F3F3F3F3F00320032177009C499:1017A0000004001E000A000A000F0064000A000A7C:1017B0000000000000000000000000000001010126:1017C0000D0E0F030405060708090A0B0C000102A1:1017D0000037003700370037003700370037003751:1017E0000037003700370037003700370037003741:1017F0000050005000500050005000500050005069:101800000050005000500050005000500050005058:10181000001E001E001E001E001E001E001E001ED8:10182000001E001E001E001E001E001E001E001EC8:10183000002D002D002D002D002D002D002D002D40:10184000002D002D002D002D002D002D002D002D30:1018500000780087007800780078007800780078B9:1018600000780078007800780078007800780078B8:10187000009100A0009100910091009100910091D1:1018800000910091009100910091009100910091D0:10189000005F006E005F005F005F005F005F005F41:1018A000005F005F005F005F005F005F005F005F40:1018B000002D002D002D002D002D002D002D002DC0:1018C000002D002D002D002D002D002D002D002DB0:1018D00000FA00FA00FA00FA00FA00FA00FA00FA38:1018E00000FA00FA00FA00FA00FA00FA00FA00FA28:1018F000C0E0C083C082C0D0E8C0E0E9C0E0EAC078:10190000E0EBC0E0EFC0E0D2AFE5DB30E415E5DBB3:1019100030E1028028900374E5DFF09003F5E4F0F5:101920000229BFE5DB30E5081233DA900371802B22:10193000E5DB30E119E5DB20E0030229BF9003F786:1019400012318112319A1222F7F5DF0229BF90037A:10195000F5E0700DA3E5DFF09003F57401F00229C6:10196000BF9003F6E0902D4193FFB4FF0E900374F7:10197000E5DFF09003F6E004F0803EEF640F9003A3:10198000F7702B1231819003F6E0FF1231AE540F45:101990001223249003F71231819003F6E0FF04F044:1019A0001231AEFFE5DF54F04F122324800B1231C9:1019B0008112319AE5DF122336900373E004F0754B:1019C000DBFFD0E0FFD0E0FBD0E0FAD0E0F9D0E0E0:1019D000F8D0D0D082D083D0E032900388E0FE648B:1019E000107053FF900012E0FDEFC39D4003022AE8:1019F0008BEF25E02470F582E434281211A3121233:101A0000342450F582E434281211A324CAF582E567:101A1000F0340112123C2490F582E434281211A310:101A20001212F712123C24B0F582E434281211A3EA:101A300012139D0229E4EE64207062FF900012E010:101A4000FEEFC39E5045EF25E024F0F582E43427F5:101A50001211A312123424D0F582E434271211A3F8:101A600024CAF582E5F0340112123C2410F582E418:101A700034281211A31212F712123C2430F582E41A:101A800034281211A312139D022A3C9001CCA3E02A:101A9000900379F09001CEA3E090037AF090038B4D:101AA000E0FEB410079001ED7401F022EEB42005C1:101AB000E49001EDF0227E017FD97D007B017A0068:101AC0007914122445122E2390036EE0900388703F:101AD000057410F080037420F01229DAE4FE9000FF:101AE00012E0FFEEC39F507BE4FC75F088EE12110C:101AF000011211D41213AEEE121281F583E5822C7D:101B00001210E9E4F0EE1211C61213AEEE12143BFD:101B10002C1210E912128BF583E5822C1210E9E4E5:101B2000F0CFEECFCDECCD12104E1233600CEC6442:101B30000970B712130AF583E4F0CFEECF123386A3:101B40001233A41233951233B374DC2E121213E441:101B500012121BE41214B7A3F0900246F0A3F00E89:101B6000022ADE9001EB747EF0900011F0E4900107:101B7000EAF022E49003FCF0FF9003FBF0EF146026:101B80001E14603514604C14605B24047074900360:101B9000FD7401F0A3742FF0A37458F0022BFC1213:101BA000317E9000011222F7FED3941F40031231C0:101BB000A71222DE6E704B804312317E900002121B:101BC00022F7FED3940640031231A71222DE6E7074:101BD00031802912317E9000031222F7FE1222DE9C:101BE0006E701F801712317E9000041222F7FE647F:101BF0008B60031231A71222DE6E70069003FBE0A9:101C000004F00FEF64056003022B7D9003FBE0B44A:101C10000504A37401F09003FCE0FD6007900389C4:101C2000E0547FF0CFEDCF22758A50538AEF9004B5:101C3000137411F09004117422F09004147433F0B2:101C400075997F759A80E4FFFEC29620970AD29616:101C5000309705E4900413F00FBF00010EEF640A03:101C60004E70E67590FF75993F759AC0E4FEFF20AF:101C700097069004117427F020960C900411742696:101C8000F02097037428F00FBF00010EEF640A4E96:101C900070DDE4F5AD75AEF075AF09F5AC7589FF93:101CA00075913F75991FF59675931F759B10F59566:101CB000F592F59A75800CD28AD29490041204F0B1:101CC0002202305AE493A3F8E493A34003F6800180:101CD000F208DFF48029E493A3F85407240CC8C366:101CE00033C4540F4420C8834004F456800146F6A0:101CF000DFE4800B01020408102040809030D2E421:101D00007E019360BCA3FF543F30E509541FFEE4FD:101D100093A360010ECF54C025E060A840B8E493BF:101D2000A3FAE493A3F8E493A3C8C582C8CAC58301:101D3000CAF0A3C8C582C8CAC583CADFE9DEE78086:101D4000BE0F00FF00000000000000FFFFFFFFFFCC:101D5000FFFFFFFF00000000000000000000000087:101D60000000000000000000000000000000000073:101D70000000000000000000000000000000000063:101D80000000000000000000000000000000000053:101D90000000000000000000000000000000000043:101DA0000000000000000000000000000000000033:101DB0000000000000000000000000000000000023:101DC00000902EC0E4F0902ECB74F1F0902F58E0EC:101DD000540F24F0902EC8F0902ECC7448F0902E22:101DE000C9742AF0A37408F0902E4074811212274F:101DF000F0A3F0A3041212277402F0A37481F090F0:101E00002EC67415F0902EC17490F0A37401F0A347:101E10007420F0A37407F043E31012331190001202:101E2000EFF0227E007F807D007B017A03797512BE:101E300024459003757408F09003777405F09003BF:101E40008774ABF09003897481F0900413E09003E1:101E50007BF0900411E090037CF0900414E0900378:101E60007DF0122B73900372E06008900376741477:101E7000F08005E4900376F0022FC4C0E0C0F0C00B:101E800083C082C0D0E8C0E0ECC0E0EDC0E0EEC0AE:101E9000E0EFC0E0D2AF9001EEE004F0C3940A405E:101EA00017E4F01210C02401FFE43EFEE43DFDE41F:101EB0003CFC9002E31223FCD0E0FFD0E0FED0E037:101EC000FDD0E0FCD0E0F8D0D0D082D083D0F0D0EC:101ED000E03290040FEDF090040EEFF0A3E0FE125C:101EE0001268F583E5822E1210E9E0603590040E49:101EF000E01213ECC083C08290040FE0D082D08344:101F00001210AF12136E9027A612115B40149004AA:101F10000FE0FF90040EE01212691210E4E4F07F6B:101F200001227F002290040FEDF090040EEFF0A349:101F3000E0FE12125BF583E5822E1210E9E06032BA:101F400090040EE01213DEC083C08290040FE0D034:101F500082D0831210AF9027A412114F4014900426:101F60000FE0FF90040EE012125C1210E4E4F07F28:101F700001227F00229003FA7410F0A3E4F0A3740E:101F80003FF0A374FFF0E4FDFCF99003FAE0FEA338:101F9000E02DF582EE3CF583E493FF69F90DBD0079:101FA000010CBC2FE5BDFFE29003FCE0FEA3E0F5D1:101FB000828E83E49369700690037204F022E490A9:101FC0000372F0229001D2A3E09003CDF09001D4EF:101FD000A3E09003CEF09001CCA3E09003CFF0906B:101FE00001CEA3E09003D0F09001D8A3E09003D1FC:101FF000F09001DAA3E09003D2F09028D27401931C:102000009003D3F09028D47401939003D4F02290DD:102010000412E06044900016E0FEA3E0FFC3947059:10202000EE941750069004147426F0C3900019E043:102030009488900018E0941350129004147427F0C0:10204000C3EF9470EE941750037428F0E4900412D8:10205000F0900414E090037DF022752001122F759A:1020600053A87F122C281233C212337412332C431C:10207000A880758DE01232F4EF24E0600A2410701D:102080000AC283C2828004D283D2821229DA438DAB:1020900020121BBF80DFCBEFCBEB64017017121156:1020A00069E09003C5F012117DA3E09003C6F0EC47:1020B000A3F0EDA3F0EB64027017121169E0900336:1020C000C9F012117DA3E09003CAF0ECA3F0EDA3D8:1020D000F022410245004101EE004102480041006A:1020E00013004102D30041036E004101ED004103A2:1020F000F5004103F60042036F0000410371004107:1021000003730041037200410374100090040E1227:102110001300503090040EE0FFEB12125C1210E43A:10212000E07021EB12125C1210E47401F01210C086:10213000FFEB1213DEC083C08290040EE0D082D089:10214000831214C22290040E121300503090040E19:10215000E0FFEB1212691210E4E07021EB12126939:102160001210E47401F01210C0FFEB1213ECC083E4:10217000C08290040EE0D082D0831214C222900359:10218000FDE0FBA3E0FAA3E0F922E4F5DA75DA401A:1021900043DA2075D74075DA58229003F6E0FF0441:1021A000F08F82758300229003FC7401F022E92FE6:1021B000F9E43AFA0222DE9003FDEFF0E0FF24F0AA:1021C000121345E06020EF1213FA1210B512136ECD:1021D00090279A12115B400E9003FDE024F0121339:1021E00045E4F07F01227F00229003FDEFF0E0FF45:1021F00024D4121366E06020EF1214241210B512DA:10220000136E90279E12115B400E9003FDE024D4C4:10221000121366E4F07F01227F0022E4FFFE9000AB:1022200012E0FDEEC39D501C12109FE0FCA3E0FDE8:10223000EE1210A0E0FAA3E0D39DEA9C4003CFEE9B:10224000CF0E80DA9001ECEFF0229003FDEFF0E08A:10225000FF240A12135BE0601AEF1214161210B575:1022600012114C400E9003FDE0240A12135BE4F0BF:102270007F01227F0022E4F01233B39003FCE0FFE1:102280001213025017121342E0701112134274011C:10229000F01210C0FFEB1213FA1223FC22121302E9:1022A000501712134DE0701112134D7401F01210FB:1022B000C0FFEB1214081223FC2212130250171253:1022C0001358E070111213587401F01210C0FFEB94:1022D0001214161223FC221213025017121363E079:1022E00070111213637401F01210C0FFEB1214246A:1022F0001223FC22E4FD900371E06011900375E06D:10230000FE54F0FDEE540FF0E4900371F0CFEDCFEA:102310002212147DFFFEEE9027B093600974492FBE:10232000121489EEF00F0EEEB410EB229003F77446:1023300001F0A37403F0A37475F012318A43A90865:1023400075B80875F808229002E31224080000000E:10235000007E007F0B7D007B017A0179FF0224451E:10236000EFD39403500D121268F583E5822D1210FD:10237000E9E4F02275B28E75B6F9E4F5B743B2011F:1023800043AA01023347EFD39403500874F02F128D:102390001345E4F022EFD39403500874022F121374:1023A00050E4F022EFD394035008740A2F12135B09:1023B000E4F022EFD39403500874D42F121366E490:1023C000F022122DC19001EF7401F0022AB6EE3016:1023D000E707C3E49FFFE49EFE2212318A22000039:1023E00000000000000000000000000000000000ED:1023F00000000000000000000000000000000000DD:1024000000000000000000000000000000000000CC:1024100000000000000000000000000000000000BC:102FF0000000000000000000000000000000005081:00000001FF